Component: ARM Compiler 5.05 update 1 (build 106) Tool: armlink [4d0efa]

==============================================================================

Section Cross References

    main.o(i.led0_task) refers to tasks.o(i.vTaskDelay) for vTaskDelay
    main.o(i.led1_task) refers to tasks.o(i.vTaskDelay) for vTaskDelay
    main.o(i.main) refers to delay.o(i.delay_init) for delay_init
    main.o(i.main) refers to led.o(i.LED_Init) for LED_Init
    main.o(i.main) refers to oled.o(i.OLED_Init) for OLED_Init
    main.o(i.main) refers to oled.o(i.OLED_Clear) for OLED_Clear
    main.o(i.main) refers to oled.o(i.OLED_ShowString) for OLED_ShowString
    main.o(i.main) refers to tasks.o(i.xTaskCreate) for xTaskCreate
    main.o(i.main) refers to tasks.o(i.vTaskStartScheduler) for vTaskStartScheduler
    main.o(i.main) refers to main.o(.data) for StartTask_Handler
    main.o(i.main) refers to main.o(i.start_task) for start_task
    main.o(i.start_task) refers to port.o(i.vPortEnterCritical) for vPortEnterCritical
    main.o(i.start_task) refers to tasks.o(i.xTaskCreate) for xTaskCreate
    main.o(i.start_task) refers to tasks.o(i.vTaskDelete) for vTaskDelete
    main.o(i.start_task) refers to port.o(i.vPortExitCritical) for vPortExitCritical
    main.o(i.start_task) refers to main.o(.data) for LED0Task_Handler
    main.o(i.start_task) refers to main.o(i.led0_task) for led0_task
    main.o(i.start_task) refers to main.o(i.led1_task) for led1_task
==============================================================================

Removing Unused input sections from the image.

    Removing main.o(.rev16_text), (4 bytes).
    Removing main.o(.revsh_text), (4 bytes).
    Removing stm32f4xx_it.o(.rev16_text), (4 bytes).
    Removing stm32f4xx_it.o(.revsh_text), (4 bytes).
    Removing system_stm32f4xx.o(.rev16_text), (4 bytes).
    Removing system_stm32f4xx.o(.revsh_text), (4 bytes).
    Removing system_stm32f4xx.o(i.SystemCoreClockUpdate), (192 bytes).
    Removing led.o(.rev16_text), (4 bytes).
    Removing led.o(.revsh_text), (4 bytes).
    Removing oled.o(.rev16_text), (4 bytes).
    Removing oled.o(.revsh_text), (4 bytes).
    Removing oled.o(i.OLED_Display_Off), (28 bytes).
    Removing oled.o(i.OLED_Fill), (58 bytes).
    Removing oled.o(i.OLED_ShowNum), (152 bytes).
    Removing oled.o(i.mypow), (22 bytes).
    Removing myiic.o(.rev16_text), (4 bytes).
    Removing myiic.o(.revsh_text), (4 bytes).
    Removing myiic.o(i.IIC_Ack), (80 bytes).
==============================================================================

Image Symbol Table

    Local Symbols

    Symbol Name                              Value     Ov Type        Size  Object(Section)

    ../clib/angel/boardlib.s                 0x00000000   Number         0  boardinit3.o ABSOLUTE
    ../clib/angel/boardlib.s                 0x00000000   Number         0  boardshut.o ABSOLUTE
    ../clib/angel/boardlib.s                 0x00000000   Number         0  boardinit1.o ABSOLUTE
    ../clib/angel/boardlib.s                 0x00000000   Number         0  boardinit2.o ABSOLUTE
    ../clib/angel/handlers.s                 0x00000000   Number         0  __scatter_copy.o ABSOLUTE
    ../clib/angel/handlers.s                 0x00000000   Number         0  __scatter_zi.o ABSOLUTE
    ../clib/angel/kernel.s                   0x00000000   Number         0  __rtentry2.o ABSOLUTE
    ../clib/angel/kernel.s                   0x00000000   Number         0  rtexit2.o ABSOLUTE
    ../clib/angel/kernel.s                   0x00000000   Number         0  rtexit.o ABSOLUTE
    ../clib/angel/kernel.s                   0x00000000   Number         0  __rtentry4.o ABSOLUTE
    ../clib/angel/kernel.s                   0x00000000   Number         0  __rtentry.o ABSOLUTE
    ../clib/angel/rt.s                       0x00000000   Number         0  rt_raise.o ABSOLUTE
    ../clib/angel/scatter.s                  0x00000000   Number         0  __scatter.o ABSOLUTE
    ../clib/angel/startup.s                  0x00000000   Number         0  __main.o ABSOLUTE
    ../clib/angel/sys.s                      0x00000000   Number         0  indicate_semi.o ABSOLUTE
    ../clib/angel/sys.s                      0x00000000   Number         0  use_no_semi.o ABSOLUTE
    ../clib/angel/sys.s                      0x00000000   Number         0  use_no_semi_2.o ABSOLUTE
    ../clib/angel/sys.s                      0x00000000   Number         0  sys_stackheap_outer.o ABSOLUTE
    ../clib/angel/sys.s                      0x00000000   Number         0  libspace.o ABSOLUTE
    ../clib/angel/sysapp.c                   0x00000000   Number         0  sys_wrch.o ABSOLUTE
    ../clib/angel/sysapp.c                   0x00000000   Number         0  sys_command.o ABSOLUTE
    ../clib/armsys.c                         0x00000000   Number         0  argv_veneer.o ABSOLUTE
    ../clib/armsys.c                         0x00000000   Number         0  argv_veneer.o ABSOLUTE
    ../clib/armsys.c                         0x00000000   Number         0  no_argv.o ABSOLUTE
    ../clib/armsys.c                         0x00000000   Number         0  _get_argv_nomalloc.o ABSOLUTE
    ../clib/heapalloc.c                      0x00000000   Number         0  hrguard.o ABSOLUTE
    ../clib/heapaux.c                        0x00000000   Number         0  heapauxi.o ABSOLUTE
    ../clib/libinit.s                        0x00000000   Number         0  libinit.o ABSOLUTE
    ../clib/libinit.s                        0x00000000   Number         0  libshutdown2.o ABSOLUTE
    ../clib/libinit.s                        0x00000000   Number         0  libinit2.o ABSOLUTE
    ../clib/libinit.s                        0x00000000   Number         0  libshutdown.o ABSOLUTE
    ../clib/memcpset.s                       0x00000000   Number         0  rt_memclr_w.o ABSOLUTE
    ../clib/memcpset.s                       0x00000000   Number         0  rt_memcpy_w.o ABSOLUTE
    ../clib/memcpset.s                       0x00000000   Number         0  rt_memclr.o ABSOLUTE
    ../clib/memcpset.s                       0x00000000   Number         0  rt_memcpy_v6.o ABSOLUTE
    ../clib/memcpset.s                       0x00000000   Number         0  aeabi_memset.o ABSOLUTE
    ../clib/signal.c                         0x00000000   Number         0  defsig_rtred_inner.o ABSOLUTE
    ../clib/signal.c                         0x00000000   Number         0  defsig_exit.o ABSOLUTE
    ../clib/signal.c                         0x00000000   Number         0  defsig_rtmem_outer.o ABSOLUTE
    ../clib/signal.c                         0x00000000   Number         0  defsig_fpe_inner.o ABSOLUTE
    ../clib/signal.c                         0x00000000   Number         0  defsig_cppl_inner.o ABSOLUTE
    ../clib/signal.c                         0x00000000   Number         0  defsig_stak_inner.o ABSOLUTE
    ../clib/signal.c                         0x00000000   Number         0  defsig_pvfn_inner.o ABSOLUTE
    ../clib/signal.c                         0x00000000   Number         0  defsig_segv_inner.o ABSOLUTE
    ../clib/signal.c                         0x00000000   Number         0  defsig_other.o ABSOLUTE
    ../clib/signal.c                         0x00000000   Number         0  defsig_rtmem_formal.o ABSOLUTE
    ../clib/signal.c                         0x00000000   Number         0  defsig_abrt_inner.o ABSOLUTE
    ../clib/signal.c                         0x00000000   Number         0  defsig_general.o ABSOLUTE
    ../clib/signal.c                         0x00000000   Number         0  __raise.o ABSOLUTE
    ../clib/signal.c                         0x00000000   Number         0  defsig_rtmem_inner.o ABSOLUTE
    ../clib/signal.s                         0x00000000   Number         0  defsig.o ABSOLUTE
    ../clib/stdlib.c                         0x00000000   Number         0  exit.o ABSOLUTE
    ../fplib/fpinit.s                        0x00000000   Number         0  fpinit.o ABSOLUTE
    ..\CORE\startup_stm32f40_41xxx.s         0x00000000   Number         0  startup_stm32f40_41xxx.o ABSOLUTE
    ..\FWLIB\src\misc.c                      0x00000000   Number         0  misc.o ABSOLUTE
    ..\FWLIB\src\stm32f4xx_gpio.c            0x00000000   Number         0  stm32f4xx_gpio.o ABSOLUTE
    ..\FWLIB\src\stm32f4xx_rcc.c             0x00000000   Number         0  stm32f4xx_rcc.o ABSOLUTE
    ..\FWLIB\src\stm32f4xx_syscfg.c          0x00000000   Number         0  stm32f4xx_syscfg.o ABSOLUTE
    ..\FWLIB\src\stm32f4xx_usart.c           0x00000000   Number         0  stm32f4xx_usart.o ABSOLUTE
    ..\FreeRTOS\croutine.c                   0x00000000   Number         0  croutine.o ABSOLUTE
    ..\FreeRTOS\event_groups.c               0x00000000   Number         0  event_groups.o ABSOLUTE
    ..\FreeRTOS\list.c                       0x00000000   Number         0  list.o ABSOLUTE
    ..\FreeRTOS\portable\MemMang\heap_4.c    0x00000000   Number         0  heap_4.o ABSOLUTE
    ..\FreeRTOS\portable\RVDS\ARM_CM4F\port.c 0x00000000   Number         0  port.o ABSOLUTE
    ..\FreeRTOS\queue.c                      0x00000000   Number         0  queue.o ABSOLUTE
    ..\FreeRTOS\tasks.c                      0x00000000   Number         0  tasks.o ABSOLUTE
    ..\FreeRTOS\timers.c                     0x00000000   Number         0  timers.o ABSOLUTE
    ..\HARDWARE\IIC\myiic.c                  0x00000000   Number         0  myiic.o ABSOLUTE
    ..\HARDWARE\LED\led.c                    0x00000000   Number         0  led.o ABSOLUTE
    ..\HARDWARE\OLED\oled.c                  0x00000000   Number         0  oled.o ABSOLUTE
    ..\SYSTEM\delay\delay.c                  0x00000000   Number         0  delay.o ABSOLUTE
    ..\SYSTEM\sys\sys.c                      0x00000000   Number         0  sys.o ABSOLUTE
    ..\SYSTEM\usart\usart.c                  0x00000000   Number         0  usart.o ABSOLUTE
    ..\\FWLIB\\src\\misc.c                   0x00000000   Number         0  misc.o ABSOLUTE
    ..\\FWLIB\\src\\stm32f4xx_gpio.c         0x00000000   Number         0  stm32f4xx_gpio.o ABSOLUTE
    ..\\FWLIB\\src\\stm32f4xx_rcc.c          0x00000000   Number         0  stm32f4xx_rcc.o ABSOLUTE
    ..\\FWLIB\\src\\stm32f4xx_syscfg.c       0x00000000   Number         0  stm32f4xx_syscfg.o ABSOLUTE
    ..\\FWLIB\\src\\stm32f4xx_usart.c        0x00000000   Number         0  stm32f4xx_usart.o ABSOLUTE
    ..\\FreeRTOS\\portable\\RVDS\\ARM_CM4F\\port.c 0x00000000   Number         0  port.o ABSOLUTE
    ..\\HARDWARE\\IIC\\myiic.c               0x00000000   Number         0  myiic.o ABSOLUTE
    ..\\HARDWARE\\LED\\led.c                 0x00000000   Number         0  led.o ABSOLUTE
    ..\\HARDWARE\\OLED\\oled.c               0x00000000   Number         0  oled.o ABSOLUTE
    ..\\SYSTEM\\delay\\delay.c               0x00000000   Number         0  delay.o ABSOLUTE
    ..\\SYSTEM\\sys\\sys.c                   0x00000000   Number         0  sys.o ABSOLUTE
    ..\\SYSTEM\\usart\\usart.c               0x00000000   Number         0  usart.o ABSOLUTE
    dc.s                                     0x00000000   Number         0  dc.o ABSOLUTE
    main.c                                   0x00000000   Number         0  main.o ABSOLUTE
    main.c                                   0x00000000   Number         0  main.o ABSOLUTE
    stm32f4xx_it.c                           0x00000000   Number         0  stm32f4xx_it.o ABSOLUTE
    stm32f4xx_it.c                           0x00000000   Number         0  stm32f4xx_it.o ABSOLUTE
    system_stm32f4xx.c                       0x00000000   Number         0  system_stm32f4xx.o ABSOLUTE
    system_stm32f4xx.c                       0x00000000   Number         0  system_stm32f4xx.o ABSOLUTE
    RESET                                    0x08000000   Section      392  startup_stm32f40_41xxx.o(RESET)
    !!!main                                  0x08000188   Section        8  __main.o(!!!main)
    !!!scatter                               0x08000190   Section       52  __scatter.o(!!!scatter)
    !!handler_copy                           0x080001c4   Section       26  __scatter_copy.o(!!handler_copy)
    !!handler_zi                             0x080001e0   Section       28  __scatter_zi.o(!!handler_zi)
    .ARM.Collect$$libinit$$00000000          0x080001fc   Section        2  libinit.o(.ARM.Collect$$libinit$$00000000)
    .ARM.Collect$$libinit$$00000001          0x080001fe   Section        4  libinit2.o(.ARM.Collect$$libinit$$00000001)
    .ARM.Collect$$libinit$$00000004          0x08000202   Section        0  libinit2.o(.ARM.Collect$$libinit$$00000004)
    .ARM.Collect$$libinit$$0000000A          0x08000202   Section        0  libinit2.o(.ARM.Collect$$libinit$$0000000A)
    .ARM.Collect$$libinit$$0000000C          0x08000202   Section        0  libinit2.o(.ARM.Collect$$libinit$$0000000C)
    .ARM.Collect$$libinit$$0000000E          0x08000202   Section        0  libinit2.o(.ARM.Collect$$libinit$$0000000E)
    .ARM.Collect$$libinit$$00000011          0x08000202   Section        0  libinit2.o(.ARM.Collect$$libinit$$00000011)
    .ARM.Collect$$libinit$$00000013          0x08000202   Section        0  libinit2.o(.ARM.Collect$$libinit$$00000013)
    .ARM.Collect$$libinit$$00000015          0x08000202   Section        0  libinit2.o(.ARM.Collect$$libinit$$00000015)
    .ARM.Collect$$libinit$$00000017          0x08000202   Section        0  libinit2.o(.ARM.Collect$$libinit$$00000017)
    .ARM.Collect$$libinit$$00000019          0x08000202   Section        0  libinit2.o(.ARM.Collect$$libinit$$00000019)
    .ARM.Collect$$libinit$$0000001B          0x08000202   Section        0  libinit2.o(.ARM.Collect$$libinit$$0000001B)
    .ARM.Collect$$libinit$$0000001D          0x08000202   Section        0  libinit2.o(.ARM.Collect$$libinit$$0000001D)
    .ARM.Collect$$libinit$$0000001F          0x08000202   Section        0  libinit2.o(.ARM.Collect$$libinit$$0000001F)
    .ARM.Collect$$libinit$$00000021          0x08000202   Section        0  libinit2.o(.ARM.Collect$$libinit$$00000021)
    .ARM.Collect$$libinit$$00000023          0x08000202   Section        0  libinit2.o(.ARM.Collect$$libinit$$00000023)
    .ARM.Collect$$libinit$$00000025          0x08000202   Section        0  libinit2.o(.ARM.Collect$$libinit$$00000025)
    .ARM.Collect$$libinit$$0000002C          0x08000202   Section        0  libinit2.o(.ARM.Collect$$libinit$$0000002C)
    .ARM.Collect$$libinit$$0000002E          0x08000202   Section        0  libinit2.o(.ARM.Collect$$libinit$$0000002E)
    .ARM.Collect$$libinit$$00000030          0x08000202   Section        0  libinit2.o(.ARM.Collect$$libinit$$00000030)
    .ARM.Collect$$libinit$$00000032          0x08000202   Section        0  libinit2.o(.ARM.Collect$$libinit$$00000032)
    .ARM.Collect$$libinit$$00000033          0x08000202   Section        2  libinit2.o(.ARM.Collect$$libinit$$00000033)
    .ARM.Collect$$libshutdown$$00000000      0x08000204   Section        2  libshutdown.o(.ARM.Collect$$libshutdown$$00000000)
    .ARM.Collect$$libshutdown$$00000003      0x08000206   Section        0  libshutdown2.o(.ARM.Collect$$libshutdown$$00000003)
    .ARM.Collect$$libshutdown$$00000006      0x08000206   Section        0  libshutdown2.o(.ARM.Collect$$libshutdown$$00000006)
    .ARM.Collect$$libshutdown$$00000009      0x08000206   Section        0  libshutdown2.o(.ARM.Collect$$libshutdown$$00000009)
    .ARM.Collect$$libshutdown$$0000000B      0x08000206   Section        0  libshutdown2.o(.ARM.Collect$$libshutdown$$0000000B)
    .ARM.Collect$$libshutdown$$0000000E      0x08000206   Section        0  libshutdown2.o(.ARM.Collect$$libshutdown$$0000000E)
    .ARM.Collect$$libshutdown$$0000000F      0x08000206   Section        2  libshutdown2.o(.ARM.Collect$$libshutdown$$0000000F)
    .ARM.Collect$$rtentry$$00000000          0x08000208   Section        0  __rtentry.o(.ARM.Collect$$rtentry$$00000000)
    .ARM.Collect$$rtentry$$00000002          0x08000208   Section        0  __rtentry2.o(.ARM.Collect$$rtentry$$00000002)
    .ARM.Collect$$rtentry$$00000004          0x08000208   Section        6  __rtentry4.o(.ARM.Collect$$rtentry$$00000004)
    .ARM.Collect$$rtentry$$00000009          0x0800020e   Section        0  __rtentry2.o(.ARM.Collect$$rtentry$$00000009)
    .ARM.Collect$$rtentry$$0000000A          0x0800020e   Section        4  __rtentry2.o(.ARM.Collect$$rtentry$$0000000A)
    .ARM.Collect$$rtentry$$0000000C          0x08000212   Section        0  __rtentry2.o(.ARM.Collect$$rtentry$$0000000C)
    .ARM.Collect$$rtentry$$0000000D          0x08000212   Section        8  __rtentry2.o(.ARM.Collect$$rtentry$$0000000D)
    .ARM.Collect$$rtexit$$00000000           0x0800021a   Section        2  rtexit.o(.ARM.Collect$$rtexit$$00000000)
    .ARM.Collect$$rtexit$$00000002           0x0800021c   Section        0  rtexit2.o(.ARM.Collect$$rtexit$$00000002)
    .ARM.Collect$$rtexit$$00000003           0x0800021c   Section        4  rtexit2.o(.ARM.Collect$$rtexit$$00000003)
    .ARM.Collect$$rtexit$$00000004           0x08000220   Section        6  rtexit2.o(.ARM.Collect$$rtexit$$00000004)
    .emb_text                                0x08000228   Section      190  port.o(.emb_text)
    $v0                                      0x08000228   Number         0  port.o(.emb_text)
    .text                                    0x080002e8   Section       64  startup_stm32f40_41xxx.o(.text)
    $v0                                      0x080002e8   Number         0  startup_stm32f40_41xxx.o(.text)
    .text                                    0x08000328   Section        2  use_no_semi_2.o(.text)
    .text                                    0x0800032a   Section      138  rt_memcpy_v6.o(.text)
    .text                                    0x080003b4   Section       16  aeabi_memset.o(.text)
    .text                                    0x080003c4   Section       68  rt_memclr.o(.text)
    .text                                    0x08000408   Section        0  heapauxi.o(.text)
    .text                                    0x0800040e   Section        2  use_no_semi.o(.text)
    .text                                    0x08000410   Section      100  rt_memcpy_w.o(.text)
    .text                                    0x08000474   Section       78  rt_memclr_w.o(.text)
    .text                                    0x080004c2   Section       74  sys_stackheap_outer.o(.text)
    .text                                    0x0800050c   Section        0  exit.o(.text)
    .text                                    0x08000518   Section        8  libspace.o(.text)
    i.BusFault_Handler                       0x08000520   Section        0  stm32f4xx_it.o(i.BusFault_Handler)
    i.DebugMon_Handler                       0x08000524   Section        0  stm32f4xx_it.o(i.DebugMon_Handler)
    i.GPIO_Init                              0x08000526   Section        0  stm32f4xx_gpio.o(i.GPIO_Init)
    i.GPIO_ResetBits                         0x080005b6   Section        0  stm32f4xx_gpio.o(i.GPIO_ResetBits)
    i.GPIO_SetBits                           0x080005ba   Section        0  stm32f4xx_gpio.o(i.GPIO_SetBits)
    i.HardFault_Handler                      0x080005be   Section        0  stm32f4xx_it.o(i.HardFault_Handler)
    i.IIC_Init                               0x080005c4   Section        0  myiic.o(i.IIC_Init)
    i.IIC_Send_Byte                          0x08000610   Section        0  myiic.o(i.IIC_Send_Byte)
    i.IIC_Start                              0x08000678   Section        0  myiic.o(i.IIC_Start)
    i.IIC_Stop                               0x080006c4   Section        0  myiic.o(i.IIC_Stop)
    i.IIC_Wait_Ack                           0x08000710   Section        0  myiic.o(i.IIC_Wait_Ack)
    i.LED_Init                               0x08000770   Section        0  led.o(i.LED_Init)
    i.MemManage_Handler                      0x080007c8   Section        0  stm32f4xx_it.o(i.MemManage_Handler)
    i.NMI_Handler                            0x080007cc   Section        0  stm32f4xx_it.o(i.NMI_Handler)
    i.OLED_Clear                             0x080007d0   Section        0  oled.o(i.OLED_Clear)
    i.OLED_Display_On                        0x080007e8   Section        0  oled.o(i.OLED_Display_On)
    i.OLED_DrawPoint                         0x08000804   Section        0  oled.o(i.OLED_DrawPoint)
    i.OLED_Init                              0x08000864   Section        0  oled.o(i.OLED_Init)
    i.OLED_Refresh_Gram                      0x080009a8   Section        0  oled.o(i.OLED_Refresh_Gram)
    i.OLED_ShowChar                          0x080009f0   Section        0  oled.o(i.OLED_ShowChar)
    i.OLED_ShowString                        0x08000afc   Section        0  oled.o(i.OLED_ShowString)
    i.OLED_WR_Byte                           0x08000b5e   Section        0  oled.o(i.OLED_WR_Byte)
    OLED_WR_Byte                             0x08000b5f   Thumb Code    24  oled.o(i.OLED_WR_Byte)
    i.RCC_AHB1PeriphClockCmd                 0x08000b78   Section        0  stm32f4xx_rcc.o(i.RCC_AHB1PeriphClockCmd)
    i.SetSysClock                            0x08000b98   Section        0  system_stm32f4xx.o(i.SetSysClock)
    SetSysClock                              0x08000b99   Thumb Code   220  system_stm32f4xx.o(i.SetSysClock)
    i.SysTick_CLKSourceConfig                0x08000c84   Section        0  misc.o(i.SysTick_CLKSourceConfig)
    i.SysTick_Handler                        0x08000cac   Section        0  delay.o(i.SysTick_Handler)
    i.SystemInit                             0x08000cbc   Section        0  system_stm32f4xx.o(i.SystemInit)
    i.USART1_IRQHandler                      0x08000d24   Section        0  usart.o(i.USART1_IRQHandler)
    i.USART_GetITStatus                      0x08000dac   Section        0  stm32f4xx_usart.o(i.USART_GetITStatus)
    i.USART_ReceiveData                      0x08000e00   Section        0  stm32f4xx_usart.o(i.USART_ReceiveData)
    i.UsageFault_Handler                     0x08000e0a   Section        0  stm32f4xx_it.o(i.UsageFault_Handler)
    i.Write_IIC_Command                      0x08000e0e   Section        0  oled.o(i.Write_IIC_Command)
    Write_IIC_Command                        0x08000e0f   Thumb Code    44  oled.o(i.Write_IIC_Command)
    i.Write_IIC_Data                         0x08000e3a   Section        0  oled.o(i.Write_IIC_Data)
    Write_IIC_Data                           0x08000e3b   Thumb Code    44  oled.o(i.Write_IIC_Data)
    i._sys_exit                              0x08000e66   Section        0  usart.o(i._sys_exit)
    i.delay_init                             0x08000e6c   Section        0  delay.o(i.delay_init)
    i.delay_ms                               0x08000eb0   Section        0  delay.o(i.delay_ms)
    i.delay_us                               0x08000ef0   Section        0  delay.o(i.delay_us)
    i.led0_task                              0x08000f38   Section        0  main.o(i.led0_task)
    i.led1_task                              0x08000f58   Section        0  main.o(i.led1_task)
    i.main                                   0x08000f84   Section        0  main.o(i.main)
    i.prvAddCurrentTaskToDelayedList         0x08000fe8   Section        0  tasks.o(i.prvAddCurrentTaskToDelayedList)
    prvAddCurrentTaskToDelayedList           0x08000fe9   Thumb Code   124  tasks.o(i.prvAddCurrentTaskToDelayedList)
    i.prvAddNewTaskToReadyList               0x08001080   Section        0  tasks.o(i.prvAddNewTaskToReadyList)
    prvAddNewTaskToReadyList                 0x08001081   Thumb Code   156  tasks.o(i.prvAddNewTaskToReadyList)
    i.prvCheckForValidListAndQueue           0x08001138   Section        0  timers.o(i.prvCheckForValidListAndQueue)
    prvCheckForValidListAndQueue             0x08001139   Thumb Code    72  timers.o(i.prvCheckForValidListAndQueue)
    i.prvCheckTasksWaitingTermination        0x0800119c   Section        0  tasks.o(i.prvCheckTasksWaitingTermination)
    prvCheckTasksWaitingTermination          0x0800119d   Thumb Code    60  tasks.o(i.prvCheckTasksWaitingTermination)
    i.prvCopyDataFromQueue                   0x080011e4   Section        0  queue.o(i.prvCopyDataFromQueue)
    prvCopyDataFromQueue                     0x080011e5   Thumb Code    42  queue.o(i.prvCopyDataFromQueue)
    i.prvCopyDataToQueue                     0x0800120e   Section        0  queue.o(i.prvCopyDataToQueue)
    prvCopyDataToQueue                       0x0800120f   Thumb Code   126  queue.o(i.prvCopyDataToQueue)
    i.prvDeleteTCB                           0x0800128c   Section        0  tasks.o(i.prvDeleteTCB)
    prvDeleteTCB                             0x0800128d   Thumb Code    18  tasks.o(i.prvDeleteTCB)
    i.prvGetNextExpireTime                   0x080012a0   Section        0  timers.o(i.prvGetNextExpireTime)
    prvGetNextExpireTime                     0x080012a1   Thumb Code    36  timers.o(i.prvGetNextExpireTime)
    i.prvHeapInit                            0x080012c8   Section        0  heap_4.o(i.prvHeapInit)
    prvHeapInit                              0x080012c9   Thumb Code    98  heap_4.o(i.prvHeapInit)
    i.prvIdleTask                            0x08001344   Section        0  tasks.o(i.prvIdleTask)
    prvIdleTask                              0x08001345   Thumb Code    32  tasks.o(i.prvIdleTask)
    i.prvInitialiseNewQueue                  0x0800136c   Section        0  queue.o(i.prvInitialiseNewQueue)
    prvInitialiseNewQueue                    0x0800136d   Thumb Code    42  queue.o(i.prvInitialiseNewQueue)
    i.prvInitialiseNewTask                   0x08001396   Section        0  tasks.o(i.prvInitialiseNewTask)
    prvInitialiseNewTask                     0x08001397   Thumb Code   196  tasks.o(i.prvInitialiseNewTask)
    i.prvInitialiseTaskLists                 0x0800145c   Section        0  tasks.o(i.prvInitialiseTaskLists)
    prvInitialiseTaskLists                   0x0800145d   Thumb Code    70  tasks.o(i.prvInitialiseTaskLists)
    i.prvInsertBlockIntoFreeList             0x080014c4   Section        0  heap_4.o(i.prvInsertBlockIntoFreeList)
    prvInsertBlockIntoFreeList               0x080014c5   Thumb Code    96  heap_4.o(i.prvInsertBlockIntoFreeList)
    i.prvInsertTimerInActiveList             0x0800152c   Section        0  timers.o(i.prvInsertTimerInActiveList)
    prvInsertTimerInActiveList               0x0800152d   Thumb Code    80  timers.o(i.prvInsertTimerInActiveList)
    i.prvIsQueueEmpty                        0x08001584   Section        0  queue.o(i.prvIsQueueEmpty)
    prvIsQueueEmpty                          0x08001585   Thumb Code    26  queue.o(i.prvIsQueueEmpty)
    i.prvIsQueueFull                         0x0800159e   Section        0  queue.o(i.prvIsQueueFull)
    prvIsQueueFull                           0x0800159f   Thumb Code    30  queue.o(i.prvIsQueueFull)
    i.prvProcessExpiredTimer                 0x080015bc   Section        0  timers.o(i.prvProcessExpiredTimer)
    prvProcessExpiredTimer                   0x080015bd   Thumb Code    94  timers.o(i.prvProcessExpiredTimer)
    i.prvProcessReceivedCommands             0x08001620   Section        0  timers.o(i.prvProcessReceivedCommands)
    prvProcessReceivedCommands               0x08001621   Thumb Code   240  timers.o(i.prvProcessReceivedCommands)
    i.prvProcessTimerOrBlockTask             0x08001714   Section        0  timers.o(i.prvProcessTimerOrBlockTask)
    prvProcessTimerOrBlockTask               0x08001715   Thumb Code   102  timers.o(i.prvProcessTimerOrBlockTask)
    i.prvResetNextTaskUnblockTime            0x08001788   Section        0  tasks.o(i.prvResetNextTaskUnblockTime)
    prvResetNextTaskUnblockTime              0x08001789   Thumb Code    42  tasks.o(i.prvResetNextTaskUnblockTime)
    i.prvSampleTimeNow                       0x080017bc   Section        0  timers.o(i.prvSampleTimeNow)
    prvSampleTimeNow                         0x080017bd   Thumb Code    40  timers.o(i.prvSampleTimeNow)
    i.prvSwitchTimerLists                    0x080017e8   Section        0  timers.o(i.prvSwitchTimerLists)
    prvSwitchTimerLists                      0x080017e9   Thumb Code   150  timers.o(i.prvSwitchTimerLists)
    i.prvTaskExitError                       0x08001888   Section        0  port.o(i.prvTaskExitError)
    prvTaskExitError                         0x08001889   Thumb Code    60  port.o(i.prvTaskExitError)
    i.prvTimerTask                           0x080018c8   Section        0  timers.o(i.prvTimerTask)
    prvTimerTask                             0x080018c9   Thumb Code    26  timers.o(i.prvTimerTask)
    i.prvUnlockQueue                         0x080018e2   Section        0  queue.o(i.prvUnlockQueue)
    prvUnlockQueue                           0x080018e3   Thumb Code   126  queue.o(i.prvUnlockQueue)
    i.pvPortMalloc                           0x08001960   Section        0  heap_4.o(i.pvPortMalloc)
    i.pxPortInitialiseStack                  0x08001a9c   Section        0  port.o(i.pxPortInitialiseStack)
    i.start_task                             0x08001ac8   Section        0  main.o(i.start_task)
    i.uxListRemove                           0x08001b34   Section        0  list.o(i.uxListRemove)
    i.vListInitialise                        0x08001b5c   Section        0  list.o(i.vListInitialise)
    i.vListInitialiseItem                    0x08001b76   Section        0  list.o(i.vListInitialiseItem)
    i.vListInsert                            0x08001b7c   Section        0  list.o(i.vListInsert)
    i.vListInsertEnd                         0x08001bb0   Section        0  list.o(i.vListInsertEnd)
    i.vPortEnterCritical                     0x08001bc8   Section        0  port.o(i.vPortEnterCritical)
    i.vPortExitCritical                      0x08001c1c   Section        0  port.o(i.vPortExitCritical)
    i.vPortFree                              0x08001c58   Section        0  heap_4.o(i.vPortFree)
    i.vPortSetupTimerInterrupt               0x08001cec   Section        0  port.o(i.vPortSetupTimerInterrupt)
    i.vPortValidateInterruptPriority         0x08001d14   Section        0  port.o(i.vPortValidateInterruptPriority)
    i.vQueueAddToRegistry                    0x08001d8c   Section        0  queue.o(i.vQueueAddToRegistry)
    i.vQueueWaitForMessageRestricted         0x08001db8   Section        0  queue.o(i.vQueueWaitForMessageRestricted)
    i.vTaskDelay                             0x08001e04   Section        0  tasks.o(i.vTaskDelay)
    i.vTaskDelete                            0x08001e60   Section        0  tasks.o(i.vTaskDelete)
    i.vTaskInternalSetTimeOutState           0x08001f54   Section        0  tasks.o(i.vTaskInternalSetTimeOutState)
    i.vTaskMissedYield                       0x08001f6c   Section        0  tasks.o(i.vTaskMissedYield)
    i.vTaskPlaceOnEventList                  0x08001f78   Section        0  tasks.o(i.vTaskPlaceOnEventList)
    i.vTaskPlaceOnEventListRestricted        0x08001fb0   Section        0  tasks.o(i.vTaskPlaceOnEventListRestricted)
    i.vTaskStartScheduler                    0x08001ff0   Section        0  tasks.o(i.vTaskStartScheduler)
    i.vTaskSuspendAll                        0x08002084   Section        0  tasks.o(i.vTaskSuspendAll)
    i.vTaskSwitchContext                     0x08002094   Section        0  tasks.o(i.vTaskSwitchContext)
    i.xPortStartScheduler                    0x08002120   Section        0  port.o(i.xPortStartScheduler)
    i.xPortSysTickHandler                    0x08002288   Section        0  port.o(i.xPortSysTickHandler)
    i.xQueueGenericCreate                    0x080022bc   Section        0  queue.o(i.xQueueGenericCreate)
    i.xQueueGenericReset                     0x08002318   Section        0  queue.o(i.xQueueGenericReset)
    i.xQueueGenericSend                      0x080023b0   Section        0  queue.o(i.xQueueGenericSend)
    i.xQueueGenericSendFromISR               0x08002558   Section        0  queue.o(i.xQueueGenericSendFromISR)
    i.xQueueReceive                          0x08002650   Section        0  queue.o(i.xQueueReceive)
    i.xTaskCheckForTimeOut                   0x080027b8   Section        0  tasks.o(i.xTaskCheckForTimeOut)
    i.xTaskCreate                            0x08002844   Section        0  tasks.o(i.xTaskCreate)
    i.xTaskGetSchedulerState                 0x080028a4   Section        0  tasks.o(i.xTaskGetSchedulerState)
    i.xTaskGetTickCount                      0x080028c4   Section        0  tasks.o(i.xTaskGetTickCount)
    i.xTaskIncrementTick                     0x080028d0   Section        0  tasks.o(i.xTaskIncrementTick)
    i.xTaskPriorityDisinherit                0x08002a18   Section        0  tasks.o(i.xTaskPriorityDisinherit)
    i.xTaskRemoveFromEventList               0x08002ae0   Section        0  tasks.o(i.xTaskRemoveFromEventList)
    i.xTaskResumeAll                         0x08002b78   Section        0  tasks.o(i.xTaskResumeAll)
    i.xTimerCreateTimerTask                  0x08002c7c   Section        0  timers.o(i.xTimerCreateTimerTask)
    i.xTimerGenericCommand                   0x08002cd4   Section        0  timers.o(i.xTimerGenericCommand)
    x$fpl$fpinit                             0x08002d58   Section       10  fpinit.o(x$fpl$fpinit)
    $v0                                      0x08002d58   Number         0  fpinit.o(x$fpl$fpinit)
    .constdata                               0x08002d62   Section     6080  oled.o(.constdata)
    .data                                    0x20000000   Section       12  main.o(.data)
    .data                                    0x2000000c   Section       20  system_stm32f4xx.o(.data)
    .data                                    0x20000020   Section        8  delay.o(.data)
    fac_us                                   0x20000020   Data           4  delay.o(.data)
    fac_ms                                   0x20000024   Data           4  delay.o(.data)
    .data                                    0x20000028   Section        6  usart.o(.data)
    .data                                    0x20000030   Section       60  tasks.o(.data)
    pxDelayedTaskList                        0x20000034   Data           4  tasks.o(.data)
    pxOverflowDelayedTaskList                0x20000038   Data           4  tasks.o(.data)
    uxDeletedTasksWaitingCleanUp             0x2000003c   Data           4  tasks.o(.data)
    uxCurrentNumberOfTasks                   0x20000040   Data           4  tasks.o(.data)
    xTickCount                               0x20000044   Data           4  tasks.o(.data)
    uxTopReadyPriority                       0x20000048   Data           4  tasks.o(.data)
    xSchedulerRunning                        0x2000004c   Data           4  tasks.o(.data)
    uxPendedTicks                            0x20000050   Data           4  tasks.o(.data)
    xYieldPending                            0x20000054   Data           4  tasks.o(.data)
    xNumOfOverflows                          0x20000058   Data           4  tasks.o(.data)
    uxTaskNumber                             0x2000005c   Data           4  tasks.o(.data)
    xNextTaskUnblockTime                     0x20000060   Data           4  tasks.o(.data)
    xIdleTaskHandle                          0x20000064   Data           4  tasks.o(.data)
    uxSchedulerSuspended                     0x20000068   Data           4  tasks.o(.data)
    .data                                    0x2000006c   Section       20  timers.o(.data)
    pxCurrentTimerList                       0x2000006c   Data           4  timers.o(.data)
    pxOverflowTimerList                      0x20000070   Data           4  timers.o(.data)
    xTimerQueue                              0x20000074   Data           4  timers.o(.data)
    xTimerTaskHandle                         0x20000078   Data           4  timers.o(.data)
    xLastTime                                0x2000007c   Data           4  timers.o(.data)
    .data                                    0x20000080   Section       24  heap_4.o(.data)
    xStart                                   0x20000080   Data           8  heap_4.o(.data)
    pxEnd                                    0x20000088   Data           4  heap_4.o(.data)
    xFreeBytesRemaining                      0x2000008c   Data           4  heap_4.o(.data)
    xMinimumEverFreeBytesRemaining           0x20000090   Data           4  heap_4.o(.data)
    xBlockAllocatedBit                       0x20000094   Data           4  heap_4.o(.data)
    .data                                    0x20000098   Section       12  port.o(.data)
    uxCriticalNesting                        0x20000098   Data           4  port.o(.data)
    ucMaxSysCallPriority                     0x2000009c   Data           1  port.o(.data)
    ulMaxPRIGROUPValue                       0x200000a0   Data           4  port.o(.data)
    .bss                                     0x200000a4   Section     1024  oled.o(.bss)
    .bss                                     0x200004a4   Section      200  usart.o(.bss)
    .bss                                     0x2000056c   Section       64  queue.o(.bss)
    .bss                                     0x200005ac   Section      200  tasks.o(.bss)
    pxReadyTasksLists                        0x200005ac   Data         100  tasks.o(.bss)
    xPendingReadyList                        0x20000610   Data          20  tasks.o(.bss)
    xTasksWaitingTermination                 0x20000624   Data          20  tasks.o(.bss)
    xSuspendedTaskList                       0x20000638   Data          20  tasks.o(.bss)
    xDelayedTaskList1                        0x2000064c   Data          20  tasks.o(.bss)
    xDelayedTaskList2                        0x20000660   Data          20  tasks.o(.bss)
    .bss                                     0x20000674   Section       40  timers.o(.bss)
    xActiveTimerList1                        0x20000674   Data          20  timers.o(.bss)
    xActiveTimerList2                        0x20000688   Data          20  timers.o(.bss)
    .bss                                     0x2000069c   Section    76800  heap_4.o(.bss)
    ucHeap                                   0x2000069c   Data       76800  heap_4.o(.bss)
    .bss                                     0x2001329c   Section       96  libspace.o(.bss)
    HEAP                                     0x20013300   Section      512  startup_stm32f40_41xxx.o(HEAP)
    Heap_Mem                                 0x20013300   Data         512  startup_stm32f40_41xxx.o(HEAP)
    STACK                                    0x20013500   Section     1024  startup_stm32f40_41xxx.o(STACK)
    Stack_Mem                                0x20013500   Data        1024  startup_stm32f40_41xxx.o(STACK)
    __initial_sp                             0x20013900   Data           0  startup_stm32f40_41xxx.o(STACK)

    Global Symbols

    Symbol Name                              Value     Ov Type        Size  Object(Section)

    BuildAttributes$$THM_ISAv4$E$P$D$K$B$S$7EM$VFPi3$EXTD16$VFPS$VFMA$PE$A:L22UL41UL21$X:L11$S22US41US21$IEEE1$IW$USESV6$~STKCKD$USESV7$~SHL$OSPACE$ROPI$EBA8$UX$STANDARDLIB$REQ8$PRES8$EABIv2 0x00000000   Number         0  anon$$obj.o ABSOLUTE
    __ARM_use_no_argv                        0x00000000   Number         0  main.o ABSOLUTE
    __ARM_exceptions_init                     - Undefined Weak Reference
    __alloca_initialize                       - Undefined Weak Reference
    __arm_preinit_                            - Undefined Weak Reference
    __cpp_initialize__aeabi_                  - Undefined Weak Reference
    __cxa_finalize                            - Undefined Weak Reference
    __rt_locale                               - Undefined Weak Reference
    __sigvec_lookup                           - Undefined Weak Reference
    _atexit_init                              - Undefined Weak Reference
    _call_atexit_fns                          - Undefined Weak Reference
    _clock_init                               - Undefined Weak Reference
    _fp_trap_init                             - Undefined Weak Reference
    _fp_trap_shutdown                         - Undefined Weak Reference
    _get_lc_collate                           - Undefined Weak Reference
    _get_lc_ctype                             - Undefined Weak Reference
    _get_lc_monetary                          - Undefined Weak Reference
    _get_lc_numeric                           - Undefined Weak Reference
    _get_lc_time                              - Undefined Weak Reference
    _getenv_init                              - Undefined Weak Reference
    _handle_redirection                       - Undefined Weak Reference
    _init_alloc                               - Undefined Weak Reference
    _init_user_alloc                          - Undefined Weak Reference
    _initio                                   - Undefined Weak Reference
    _rand_init                                - Undefined Weak Reference
    _signal_finish                            - Undefined Weak Reference
    _signal_init                              - Undefined Weak Reference
    _terminate_alloc                          - Undefined Weak Reference
    _terminate_user_alloc                     - Undefined Weak Reference
    _terminateio                              - Undefined Weak Reference
    __Vectors_Size                           0x00000188   Number         0  startup_stm32f40_41xxx.o ABSOLUTE
    __Vectors                                0x08000000   Data           4  startup_stm32f40_41xxx.o(RESET)
    __Vectors_End                            0x08000188   Data           0  startup_stm32f40_41xxx.o(RESET)
    __main                                   0x08000189   Thumb Code     8  __main.o(!!!main)
    __scatterload                            0x08000191   Thumb Code     0  __scatter.o(!!!scatter)
    __scatterload_rt2                        0x08000191   Thumb Code    44  __scatter.o(!!!scatter)
    __scatterload_rt2_thumb_only             0x08000191   Thumb Code     0  __scatter.o(!!!scatter)
    __scatterload_null                       0x0800019f   Thumb Code     0  __scatter.o(!!!scatter)
    __scatterload_copy                       0x080001c5   Thumb Code    26  __scatter_copy.o(!!handler_copy)
    __scatterload_zeroinit                   0x080001e1   Thumb Code    28  __scatter_zi.o(!!handler_zi)
    __rt_lib_init                            0x080001fd   Thumb Code     0  libinit.o(.ARM.Collect$$libinit$$00000000)
    __rt_lib_init_fp_1                       0x080001ff   Thumb Code     0  libinit2.o(.ARM.Collect$$libinit$$00000001)
    __rt_lib_init_alloca_1                   0x08000203   Thumb Code     0  libinit2.o(.ARM.Collect$$libinit$$0000002E)
    __rt_lib_init_argv_1                     0x08000203   Thumb Code     0  libinit2.o(.ARM.Collect$$libinit$$0000002C)
    __rt_lib_init_atexit_1                   0x08000203   Thumb Code     0  libinit2.o(.ARM.Collect$$libinit$$0000001B)
    __rt_lib_init_clock_1                    0x08000203   Thumb Code     0  libinit2.o(.ARM.Collect$$libinit$$00000021)
    __rt_lib_init_cpp_1                      0x08000203   Thumb Code     0  libinit2.o(.ARM.Collect$$libinit$$00000032)
    __rt_lib_init_exceptions_1               0x08000203   Thumb Code     0  libinit2.o(.ARM.Collect$$libinit$$00000030)
    __rt_lib_init_fp_trap_1                  0x08000203   Thumb Code     0  libinit2.o(.ARM.Collect$$libinit$$0000001F)
    __rt_lib_init_getenv_1                   0x08000203   Thumb Code     0  libinit2.o(.ARM.Collect$$libinit$$00000023)
    __rt_lib_init_heap_1                     0x08000203   Thumb Code     0  libinit2.o(.ARM.Collect$$libinit$$0000000A)
    __rt_lib_init_lc_collate_1               0x08000203   Thumb Code     0  libinit2.o(.ARM.Collect$$libinit$$00000011)
    __rt_lib_init_lc_ctype_1                 0x08000203   Thumb Code     0  libinit2.o(.ARM.Collect$$libinit$$00000013)
    __rt_lib_init_lc_monetary_1              0x08000203   Thumb Code     0  libinit2.o(.ARM.Collect$$libinit$$00000015)
    __rt_lib_init_lc_numeric_1               0x08000203   Thumb Code     0  libinit2.o(.ARM.Collect$$libinit$$00000017)
    __rt_lib_init_lc_time_1                  0x08000203   Thumb Code     0  libinit2.o(.ARM.Collect$$libinit$$00000019)
    __rt_lib_init_preinit_1                  0x08000203   Thumb Code     0  libinit2.o(.ARM.Collect$$libinit$$00000004)
    __rt_lib_init_rand_1                     0x08000203   Thumb Code     0  libinit2.o(.ARM.Collect$$libinit$$0000000E)
    __rt_lib_init_return                     0x08000203   Thumb Code     0  libinit2.o(.ARM.Collect$$libinit$$00000033)
    __rt_lib_init_signal_1                   0x08000203   Thumb Code     0  libinit2.o(.ARM.Collect$$libinit$$0000001D)
    __rt_lib_init_stdio_1                    0x08000203   Thumb Code     0  libinit2.o(.ARM.Collect$$libinit$$00000025)
    __rt_lib_init_user_alloc_1               0x08000203   Thumb Code     0  libinit2.o(.ARM.Collect$$libinit$$0000000C)
    __rt_lib_shutdown                        0x08000205   Thumb Code     0  libshutdown.o(.ARM.Collect$$libshutdown$$00000000)
    __rt_lib_shutdown_fp_trap_1              0x08000207   Thumb Code     0  libshutdown2.o(.ARM.Collect$$libshutdown$$00000006)
    __rt_lib_shutdown_heap_1                 0x08000207   Thumb Code     0  libshutdown2.o(.ARM.Collect$$libshutdown$$0000000E)
    __rt_lib_shutdown_return                 0x08000207   Thumb Code     0  libshutdown2.o(.ARM.Collect$$libshutdown$$0000000F)
    __rt_lib_shutdown_signal_1               0x08000207   Thumb Code     0  libshutdown2.o(.ARM.Collect$$libshutdown$$00000009)
    __rt_lib_shutdown_stdio_1                0x08000207   Thumb Code     0  libshutdown2.o(.ARM.Collect$$libshutdown$$00000003)
    __rt_lib_shutdown_user_alloc_1           0x08000207   Thumb Code     0  libshutdown2.o(.ARM.Collect$$libshutdown$$0000000B)
    __rt_entry                               0x08000209   Thumb Code     0  __rtentry.o(.ARM.Collect$$rtentry$$00000000)
    __rt_entry_presh_1                       0x08000209   Thumb Code     0  __rtentry2.o(.ARM.Collect$$rtentry$$00000002)
    __rt_entry_sh                            0x08000209   Thumb Code     0  __rtentry4.o(.ARM.Collect$$rtentry$$00000004)
    __rt_entry_li                            0x0800020f   Thumb Code     0  __rtentry2.o(.ARM.Collect$$rtentry$$0000000A)
    __rt_entry_postsh_1                      0x0800020f   Thumb Code     0  __rtentry2.o(.ARM.Collect$$rtentry$$00000009)
    __rt_entry_main                          0x08000213   Thumb Code     0  __rtentry2.o(.ARM.Collect$$rtentry$$0000000D)
    __rt_entry_postli_1                      0x08000213   Thumb Code     0  __rtentry2.o(.ARM.Collect$$rtentry$$0000000C)
    __rt_exit                                0x0800021b   Thumb Code     0  rtexit.o(.ARM.Collect$$rtexit$$00000000)
    __rt_exit_ls                             0x0800021d   Thumb Code     0  rtexit2.o(.ARM.Collect$$rtexit$$00000003)
    __rt_exit_prels_1                        0x0800021d   Thumb Code     0  rtexit2.o(.ARM.Collect$$rtexit$$00000002)
    __rt_exit_exit                           0x08000221   Thumb Code     0  rtexit2.o(.ARM.Collect$$rtexit$$00000004)
    SVC_Handler                              0x08000229   Thumb Code    28  port.o(.emb_text)
    __asm___6_port_c_39a90d8d__prvStartFirstTask 0x08000249   Thumb Code    36  port.o(.emb_text)
    __asm___6_port_c_39a90d8d__prvEnableVFP  0x08000271   Thumb Code    16  port.o(.emb_text)
    PendSV_Handler                           0x08000285   Thumb Code    88  port.o(.emb_text)
    vPortGetIPSR                             0x080002e1   Thumb Code     6  port.o(.emb_text)
    Reset_Handler                            0x080002e9   Thumb Code     8  startup_stm32f40_41xxx.o(.text)
    ADC_IRQHandler                           0x08000303   Thumb Code     0  startup_stm32f40_41xxx.o(.text)
    CAN1_RX0_IRQHandler                      0x08000303   Thumb Code     0  startup_stm32f40_41xxx.o(.text)
    CAN1_RX1_IRQHandler                      0x08000303   Thumb Code     0  startup_stm32f40_41xxx.o(.text)
    CAN1_SCE_IRQHandler                      0x08000303   Thumb Code     0  startup_stm32f40_41xxx.o(.text)
    CAN1_TX_IRQHandler                       0x08000303   Thumb Code     0  startup_stm32f40_41xxx.o(.text)
    CAN2_RX0_IRQHandler                      0x08000303   Thumb Code     0  startup_stm32f40_41xxx.o(.text)
    CAN2_RX1_IRQHandler                      0x08000303   Thumb Code     0  startup_stm32f40_41xxx.o(.text)
    CAN2_SCE_IRQHandler                      0x08000303   Thumb Code     0  startup_stm32f40_41xxx.o(.text)
    CAN2_TX_IRQHandler                       0x08000303   Thumb Code     0  startup_stm32f40_41xxx.o(.text)
    CRYP_IRQHandler                          0x08000303   Thumb Code     0  startup_stm32f40_41xxx.o(.text)
    DCMI_IRQHandler                          0x08000303   Thumb Code     0  startup_stm32f40_41xxx.o(.text)
    DMA1_Stream0_IRQHandler                  0x08000303   Thumb Code     0  startup_stm32f40_41xxx.o(.text)
    DMA1_Stream1_IRQHandler                  0x08000303   Thumb Code     0  startup_stm32f40_41xxx.o(.text)
    DMA1_Stream2_IRQHandler                  0x08000303   Thumb Code     0  startup_stm32f40_41xxx.o(.text)
    DMA1_Stream3_IRQHandler                  0x08000303   Thumb Code     0  startup_stm32f40_41xxx.o(.text)
    DMA1_Stream4_IRQHandler                  0x08000303   Thumb Code     0  startup_stm32f40_41xxx.o(.text)
    DMA1_Stream5_IRQHandler                  0x08000303   Thumb Code     0  startup_stm32f40_41xxx.o(.text)
    DMA1_Stream6_IRQHandler                  0x08000303   Thumb Code     0  startup_stm32f40_41xxx.o(.text)
    DMA1_Stream7_IRQHandler                  0x08000303   Thumb Code     0  startup_stm32f40_41xxx.o(.text)
    DMA2_Stream0_IRQHandler                  0x08000303   Thumb Code     0  startup_stm32f40_41xxx.o(.text)
    DMA2_Stream1_IRQHandler                  0x08000303   Thumb Code     0  startup_stm32f40_41xxx.o(.text)
    DMA2_Stream2_IRQHandler                  0x08000303   Thumb Code     0  startup_stm32f40_41xxx.o(.text)
    DMA2_Stream3_IRQHandler                  0x08000303   Thumb Code     0  startup_stm32f40_41xxx.o(.text)
    DMA2_Stream4_IRQHandler                  0x08000303   Thumb Code     0  startup_stm32f40_41xxx.o(.text)
    DMA2_Stream5_IRQHandler                  0x08000303   Thumb Code     0  startup_stm32f40_41xxx.o(.text)
    DMA2_Stream6_IRQHandler                  0x08000303   Thumb Code     0  startup_stm32f40_41xxx.o(.text)
    DMA2_Stream7_IRQHandler                  0x08000303   Thumb Code     0  startup_stm32f40_41xxx.o(.text)
    ETH_IRQHandler                           0x08000303   Thumb Code     0  startup_stm32f40_41xxx.o(.text)
    ETH_WKUP_IRQHandler                      0x08000303   Thumb Code     0  startup_stm32f40_41xxx.o(.text)
    EXTI0_IRQHandler                         0x08000303   Thumb Code     0  startup_stm32f40_41xxx.o(.text)
    EXTI15_10_IRQHandler                     0x08000303   Thumb Code     0  startup_stm32f40_41xxx.o(.text)
    EXTI1_IRQHandler                         0x08000303   Thumb Code     0  startup_stm32f40_41xxx.o(.text)
    EXTI2_IRQHandler                         0x08000303   Thumb Code     0  startup_stm32f40_41xxx.o(.text)
    EXTI3_IRQHandler                         0x08000303   Thumb Code     0  startup_stm32f40_41xxx.o(.text)
    EXTI4_IRQHandler                         0x08000303   Thumb Code     0  startup_stm32f40_41xxx.o(.text)
    EXTI9_5_IRQHandler                       0x08000303   Thumb Code     0  startup_stm32f40_41xxx.o(.text)
    FLASH_IRQHandler                         0x08000303   Thumb Code     0  startup_stm32f40_41xxx.o(.text)
    FPU_IRQHandler                           0x08000303   Thumb Code     0  startup_stm32f40_41xxx.o(.text)
    FSMC_IRQHandler                          0x08000303   Thumb Code     0  startup_stm32f40_41xxx.o(.text)
    HASH_RNG_IRQHandler                      0x08000303   Thumb Code     0  startup_stm32f40_41xxx.o(.text)
    I2C1_ER_IRQHandler                       0x08000303   Thumb Code     0  startup_stm32f40_41xxx.o(.text)
    I2C1_EV_IRQHandler                       0x08000303   Thumb Code     0  startup_stm32f40_41xxx.o(.text)
    I2C2_ER_IRQHandler                       0x08000303   Thumb Code     0  startup_stm32f40_41xxx.o(.text)
    I2C2_EV_IRQHandler                       0x08000303   Thumb Code     0  startup_stm32f40_41xxx.o(.text)
    I2C3_ER_IRQHandler                       0x08000303   Thumb Code     0  startup_stm32f40_41xxx.o(.text)
    I2C3_EV_IRQHandler                       0x08000303   Thumb Code     0  startup_stm32f40_41xxx.o(.text)
    OTG_FS_IRQHandler                        0x08000303   Thumb Code     0  startup_stm32f40_41xxx.o(.text)
    OTG_FS_WKUP_IRQHandler                   0x08000303   Thumb Code     0  startup_stm32f40_41xxx.o(.text)
    OTG_HS_EP1_IN_IRQHandler                 0x08000303   Thumb Code     0  startup_stm32f40_41xxx.o(.text)
    OTG_HS_EP1_OUT_IRQHandler                0x08000303   Thumb Code     0  startup_stm32f40_41xxx.o(.text)
    OTG_HS_IRQHandler                        0x08000303   Thumb Code     0  startup_stm32f40_41xxx.o(.text)
    OTG_HS_WKUP_IRQHandler                   0x08000303   Thumb Code     0  startup_stm32f40_41xxx.o(.text)
    PVD_IRQHandler                           0x08000303   Thumb Code     0  startup_stm32f40_41xxx.o(.text)
    RCC_IRQHandler                           0x08000303   Thumb Code     0  startup_stm32f40_41xxx.o(.text)
    RTC_Alarm_IRQHandler                     0x08000303   Thumb Code     0  startup_stm32f40_41xxx.o(.text)
    RTC_WKUP_IRQHandler                      0x08000303   Thumb Code     0  startup_stm32f40_41xxx.o(.text)
    SDIO_IRQHandler                          0x08000303   Thumb Code     0  startup_stm32f40_41xxx.o(.text)
    SPI1_IRQHandler                          0x08000303   Thumb Code     0  startup_stm32f40_41xxx.o(.text)
    SPI2_IRQHandler                          0x08000303   Thumb Code     0  startup_stm32f40_41xxx.o(.text)
    SPI3_IRQHandler                          0x08000303   Thumb Code     0  startup_stm32f40_41xxx.o(.text)
    TAMP_STAMP_IRQHandler                    0x08000303   Thumb Code     0  startup_stm32f40_41xxx.o(.text)
    TIM1_BRK_TIM9_IRQHandler                 0x08000303   Thumb Code     0  startup_stm32f40_41xxx.o(.text)
    TIM1_CC_IRQHandler                       0x08000303   Thumb Code     0  startup_stm32f40_41xxx.o(.text)
    TIM1_TRG_COM_TIM11_IRQHandler            0x08000303   Thumb Code     0  startup_stm32f40_41xxx.o(.text)
    TIM1_UP_TIM10_IRQHandler                 0x08000303   Thumb Code     0  startup_stm32f40_41xxx.o(.text)
    TIM2_IRQHandler                          0x08000303   Thumb Code     0  startup_stm32f40_41xxx.o(.text)
    TIM3_IRQHandler                          0x08000303   Thumb Code     0  startup_stm32f40_41xxx.o(.text)
    TIM4_IRQHandler                          0x08000303   Thumb Code     0  startup_stm32f40_41xxx.o(.text)
    TIM5_IRQHandler                          0x08000303   Thumb Code     0  startup_stm32f40_41xxx.o(.text)
    TIM6_DAC_IRQHandler                      0x08000303   Thumb Code     0  startup_stm32f40_41xxx.o(.text)
    TIM7_IRQHandler                          0x08000303   Thumb Code     0  startup_stm32f40_41xxx.o(.text)
    TIM8_BRK_TIM12_IRQHandler                0x08000303   Thumb Code     0  startup_stm32f40_41xxx.o(.text)
    TIM8_CC_IRQHandler                       0x08000303   Thumb Code     0  startup_stm32f40_41xxx.o(.text)
    TIM8_TRG_COM_TIM14_IRQHandler            0x08000303   Thumb Code     0  startup_stm32f40_41xxx.o(.text)
    TIM8_UP_TIM13_IRQHandler                 0x08000303   Thumb Code     0  startup_stm32f40_41xxx.o(.text)
    UART4_IRQHandler                         0x08000303   Thumb Code     0  startup_stm32f40_41xxx.o(.text)
    UART5_IRQHandler                         0x08000303   Thumb Code     0  startup_stm32f40_41xxx.o(.text)
    USART2_IRQHandler                        0x08000303   Thumb Code     0  startup_stm32f40_41xxx.o(.text)
    USART3_IRQHandler                        0x08000303   Thumb Code     0  startup_stm32f40_41xxx.o(.text)
    USART6_IRQHandler                        0x08000303   Thumb Code     0  startup_stm32f40_41xxx.o(.text)
    WWDG_IRQHandler                          0x08000303   Thumb Code     0  startup_stm32f40_41xxx.o(.text)
    __user_initial_stackheap                 0x08000305   Thumb Code     0  startup_stm32f40_41xxx.o(.text)
    __use_no_semihosting                     0x08000329   Thumb Code     2  use_no_semi_2.o(.text)
    __aeabi_memcpy                           0x0800032b   Thumb Code     0  rt_memcpy_v6.o(.text)
    __rt_memcpy                              0x0800032b   Thumb Code   138  rt_memcpy_v6.o(.text)
    _memcpy_lastbytes                        0x08000391   Thumb Code     0  rt_memcpy_v6.o(.text)
    __aeabi_memset                           0x080003b5   Thumb Code    16  aeabi_memset.o(.text)
    __aeabi_memclr                           0x080003c5   Thumb Code     0  rt_memclr.o(.text)
    __rt_memclr                              0x080003c5   Thumb Code    68  rt_memclr.o(.text)
    _memset                                  0x080003c9   Thumb Code     0  rt_memclr.o(.text)
    __use_two_region_memory                  0x08000409   Thumb Code     2  heapauxi.o(.text)
    __rt_heap_escrow$2region                 0x0800040b   Thumb Code     2  heapauxi.o(.text)
    __rt_heap_expand$2region                 0x0800040d   Thumb Code     2  heapauxi.o(.text)
    __I$use$semihosting                      0x0800040f   Thumb Code     0  use_no_semi.o(.text)
    __use_no_semihosting_swi                 0x0800040f   Thumb Code     2  use_no_semi.o(.text)
    __aeabi_memcpy4                          0x08000411   Thumb Code     0  rt_memcpy_w.o(.text)
    __aeabi_memcpy8                          0x08000411   Thumb Code     0  rt_memcpy_w.o(.text)
    __rt_memcpy_w                            0x08000411   Thumb Code   100  rt_memcpy_w.o(.text)
    _memcpy_lastbytes_aligned                0x08000459   Thumb Code     0  rt_memcpy_w.o(.text)
    __aeabi_memclr4                          0x08000475   Thumb Code     0  rt_memclr_w.o(.text)
    __aeabi_memclr8                          0x08000475   Thumb Code     0  rt_memclr_w.o(.text)
    __rt_memclr_w                            0x08000475   Thumb Code    78  rt_memclr_w.o(.text)
    _memset_w                                0x08000479   Thumb Code     0  rt_memclr_w.o(.text)
    __user_setup_stackheap                   0x080004c3   Thumb Code    74  sys_stackheap_outer.o(.text)
    exit                                     0x0800050d   Thumb Code    12  exit.o(.text)
    __user_libspace                          0x08000519   Thumb Code     8  libspace.o(.text)
    __user_perproc_libspace                  0x08000519   Thumb Code     0  libspace.o(.text)
    __user_perthread_libspace                0x08000519   Thumb Code     0  libspace.o(.text)
    BusFault_Handler                         0x08000521   Thumb Code     4  stm32f4xx_it.o(i.BusFault_Handler)
    DebugMon_Handler                         0x08000525   Thumb Code     2  stm32f4xx_it.o(i.DebugMon_Handler)
    GPIO_Init                                0x08000527   Thumb Code   144  stm32f4xx_gpio.o(i.GPIO_Init)
    GPIO_ResetBits                           0x080005b7   Thumb Code     4  stm32f4xx_gpio.o(i.GPIO_ResetBits)
    GPIO_SetBits                             0x080005bb   Thumb Code     4  stm32f4xx_gpio.o(i.GPIO_SetBits)
    HardFault_Handler                        0x080005bf   Thumb Code     4  stm32f4xx_it.o(i.HardFault_Handler)
    IIC_Init                                 0x080005c5   Thumb Code    62  myiic.o(i.IIC_Init)
    IIC_Send_Byte                            0x08000611   Thumb Code    90  myiic.o(i.IIC_Send_Byte)
    IIC_Start                                0x08000679   Thumb Code    64  myiic.o(i.IIC_Start)
    IIC_Stop                                 0x080006c5   Thumb Code    62  myiic.o(i.IIC_Stop)
    IIC_Wait_Ack                             0x08000711   Thumb Code    82  myiic.o(i.IIC_Wait_Ack)
    LED_Init                                 0x08000771   Thumb Code    80  led.o(i.LED_Init)
    MemManage_Handler                        0x080007c9   Thumb Code     4  stm32f4xx_it.o(i.MemManage_Handler)
    NMI_Handler                              0x080007cd   Thumb Code     2  stm32f4xx_it.o(i.NMI_Handler)
    OLED_Clear                               0x080007d1   Thumb Code    18  oled.o(i.OLED_Clear)
    OLED_Display_On                          0x080007e9   Thumb Code    28  oled.o(i.OLED_Display_On)
    OLED_DrawPoint                           0x08000805   Thumb Code    92  oled.o(i.OLED_DrawPoint)
    OLED_Init                                0x08000865   Thumb Code   314  oled.o(i.OLED_Init)
    OLED_Refresh_Gram                        0x080009a9   Thumb Code    68  oled.o(i.OLED_Refresh_Gram)
    OLED_ShowChar                            0x080009f1   Thumb Code   254  oled.o(i.OLED_ShowChar)
    OLED_ShowString                          0x08000afd   Thumb Code    98  oled.o(i.OLED_ShowString)
    RCC_AHB1PeriphClockCmd                   0x08000b79   Thumb Code    26  stm32f4xx_rcc.o(i.RCC_AHB1PeriphClockCmd)
    SysTick_CLKSourceConfig                  0x08000c85   Thumb Code    40  misc.o(i.SysTick_CLKSourceConfig)
    SysTick_Handler                          0x08000cad   Thumb Code    16  delay.o(i.SysTick_Handler)
    SystemInit                               0x08000cbd   Thumb Code    88  system_stm32f4xx.o(i.SystemInit)
    USART1_IRQHandler                        0x08000d25   Thumb Code   122  usart.o(i.USART1_IRQHandler)
    USART_GetITStatus                        0x08000dad   Thumb Code    84  stm32f4xx_usart.o(i.USART_GetITStatus)
    USART_ReceiveData                        0x08000e01   Thumb Code    10  stm32f4xx_usart.o(i.USART_ReceiveData)
    UsageFault_Handler                       0x08000e0b   Thumb Code     4  stm32f4xx_it.o(i.UsageFault_Handler)
    _sys_exit                                0x08000e67   Thumb Code     4  usart.o(i._sys_exit)
    delay_init                               0x08000e6d   Thumb Code    58  delay.o(i.delay_init)
    delay_ms                                 0x08000eb1   Thumb Code    60  delay.o(i.delay_ms)
    delay_us                                 0x08000ef1   Thumb Code    68  delay.o(i.delay_us)
    led0_task                                0x08000f39   Thumb Code    22  main.o(i.led0_task)
    led1_task                                0x08000f59   Thumb Code    34  main.o(i.led1_task)
    main                                     0x08000f85   Thumb Code    60  main.o(i.main)
    pvPortMalloc                             0x08001961   Thumb Code   296  heap_4.o(i.pvPortMalloc)
    pxPortInitialiseStack                    0x08001a9d   Thumb Code    38  port.o(i.pxPortInitialiseStack)
    start_task                               0x08001ac9   Thumb Code    62  main.o(i.start_task)
    uxListRemove                             0x08001b35   Thumb Code    40  list.o(i.uxListRemove)
    vListInitialise                          0x08001b5d   Thumb Code    26  list.o(i.vListInitialise)
    vListInitialiseItem                      0x08001b77   Thumb Code     6  list.o(i.vListInitialiseItem)
    vListInsert                              0x08001b7d   Thumb Code    52  list.o(i.vListInsert)
    vListInsertEnd                           0x08001bb1   Thumb Code    24  list.o(i.vListInsertEnd)
    vPortEnterCritical                       0x08001bc9   Thumb Code    76  port.o(i.vPortEnterCritical)
    vPortExitCritical                        0x08001c1d   Thumb Code    56  port.o(i.vPortExitCritical)
    vPortFree                                0x08001c59   Thumb Code   140  heap_4.o(i.vPortFree)
    vPortSetupTimerInterrupt                 0x08001ced   Thumb Code    36  port.o(i.vPortSetupTimerInterrupt)
    vPortValidateInterruptPriority           0x08001d15   Thumb Code   106  port.o(i.vPortValidateInterruptPriority)
    vQueueAddToRegistry                      0x08001d8d   Thumb Code    38  queue.o(i.vQueueAddToRegistry)
    vQueueWaitForMessageRestricted           0x08001db9   Thumb Code    74  queue.o(i.vQueueWaitForMessageRestricted)
    vTaskDelay                               0x08001e05   Thumb Code    82  tasks.o(i.vTaskDelay)
    vTaskDelete                              0x08001e61   Thumb Code   202  tasks.o(i.vTaskDelete)
    vTaskInternalSetTimeOutState             0x08001f55   Thumb Code    14  tasks.o(i.vTaskInternalSetTimeOutState)
    vTaskMissedYield                         0x08001f6d   Thumb Code     8  tasks.o(i.vTaskMissedYield)
    vTaskPlaceOnEventList                    0x08001f79   Thumb Code    52  tasks.o(i.vTaskPlaceOnEventList)
    vTaskPlaceOnEventListRestricted          0x08001fb1   Thumb Code    60  tasks.o(i.vTaskPlaceOnEventListRestricted)
    vTaskStartScheduler                      0x08001ff1   Thumb Code   118  tasks.o(i.vTaskStartScheduler)
    vTaskSuspendAll                          0x08002085   Thumb Code    12  tasks.o(i.vTaskSuspendAll)
    vTaskSwitchContext                       0x08002095   Thumb Code   118  tasks.o(i.vTaskSwitchContext)
    xPortStartScheduler                      0x08002121   Thumb Code   330  port.o(i.xPortStartScheduler)
    xPortSysTickHandler                      0x08002289   Thumb Code    46  port.o(i.xPortSysTickHandler)
    xQueueGenericCreate                      0x080022bd   Thumb Code    90  queue.o(i.xQueueGenericCreate)
    xQueueGenericReset                       0x08002319   Thumb Code   146  queue.o(i.xQueueGenericReset)
    xQueueGenericSend                        0x080023b1   Thumb Code   420  queue.o(i.xQueueGenericSend)
    xQueueGenericSendFromISR                 0x08002559   Thumb Code   248  queue.o(i.xQueueGenericSendFromISR)
    xQueueReceive                            0x08002651   Thumb Code   356  queue.o(i.xQueueReceive)
    xTaskCheckForTimeOut                     0x080027b9   Thumb Code   132  tasks.o(i.xTaskCheckForTimeOut)
    xTaskCreate                              0x08002845   Thumb Code    96  tasks.o(i.xTaskCreate)
    xTaskGetSchedulerState                   0x080028a5   Thumb Code    24  tasks.o(i.xTaskGetSchedulerState)
    xTaskGetTickCount                        0x080028c5   Thumb Code     6  tasks.o(i.xTaskGetTickCount)
    xTaskIncrementTick                       0x080028d1   Thumb Code   282  tasks.o(i.xTaskIncrementTick)
    xTaskPriorityDisinherit                  0x08002a19   Thumb Code   188  tasks.o(i.xTaskPriorityDisinherit)
    xTaskRemoveFromEventList                 0x08002ae1   Thumb Code   128  tasks.o(i.xTaskRemoveFromEventList)
    xTaskResumeAll                           0x08002b79   Thumb Code   224  tasks.o(i.xTaskResumeAll)
    xTimerCreateTimerTask                    0x08002c7d   Thumb Code    66  timers.o(i.xTimerCreateTimerTask)
    xTimerGenericCommand                     0x08002cd5   Thumb Code   126  timers.o(i.xTimerGenericCommand)
    _fp_init                                 0x08002d59   Thumb Code    10  fpinit.o(x$fpl$fpinit)
    __fplib_config_fpu_vfp                   0x08002d61   Thumb Code     0  fpinit.o(x$fpl$fpinit)
    __fplib_config_pureend_doubles           0x08002d61   Thumb Code     0  fpinit.o(x$fpl$fpinit)
    asc2_1206                                0x08002d62   Data        1140  oled.o(.constdata)
    asc2_1608                                0x080031d6   Data        1520  oled.o(.constdata)
    asc2_2412                                0x080037c6   Data        3420  oled.o(.constdata)
    Region$$Table$$Base                      0x08004524   Number         0  anon$$obj.o(Region$$Table)
    Region$$Table$$Limit                     0x08004544   Number         0  anon$$obj.o(Region$$Table)
    StartTask_Handler                        0x20000000   Data           4  main.o(.data)
    LED0Task_Handler                         0x20000004   Data           4  main.o(.data)
    LED1Task_Handler                         0x20000008   Data           4  main.o(.data)
    SystemCoreClock                          0x2000000c   Data           4  system_stm32f4xx.o(.data)
    AHBPrescTable                            0x20000010   Data          16  system_stm32f4xx.o(.data)
    __stdout                                 0x20000028   Data           4  usart.o(.data)
    USART_RX_STA                             0x2000002c   Data           2  usart.o(.data)
    pxCurrentTCB                             0x20000030   Data           4  tasks.o(.data)
    OLED_GRAM                                0x200000a4   Data        1024  oled.o(.bss)
    USART_RX_BUF                             0x200004a4   Data         200  usart.o(.bss)
    xQueueRegistry                           0x2000056c   Data          64  queue.o(.bss)
    __libspace_start                         0x2001329c   Data          96  libspace.o(.bss)
    __temporary_stack_top$libspace           0x200132fc   Data           0  libspace.o(.bss)



==============================================================================

Memory Map of the image

  Image Entry point : 0x08000189

  Load Region LR_IROM1 (Base: 0x08000000, Size: 0x000045e8, Max: 0x00100000, ABSOLUTE)

    Execution Region ER_IROM1 (Base: 0x08000000, Size: 0x00004544, Max: 0x00100000, ABSOLUTE)

    Base Addr    Size         Type   Attr      Idx    E Section Name        Object

    0x08000000   0x00000188   Data   RO          638    RESET               startup_stm32f40_41xxx.o
    0x08000188   0x00000008   Code   RO         2334  * !!!main             c_w.l(__main.o)
    0x08000190   0x00000034   Code   RO         2492    !!!scatter          c_w.l(__scatter.o)
    0x080001c4   0x0000001a   Code   RO         2494    !!handler_copy      c_w.l(__scatter_copy.o)
    0x080001de   0x00000002   PAD
    0x080001e0   0x0000001c   Code   RO         2496    !!handler_zi        c_w.l(__scatter_zi.o)
    0x080001fc   0x00000002   Code   RO         2367    .ARM.Collect$$libinit$$00000000  c_w.l(libinit.o)
    0x080001fe   0x00000004   Code   RO         2373    .ARM.Collect$$libinit$$00000001  c_w.l(libinit2.o)
    0x08000202   0x00000000   Code   RO         2376    .ARM.Collect$$libinit$$00000004  c_w.l(libinit2.o)
    0x08000202   0x00000000   Code   RO         2379    .ARM.Collect$$libinit$$0000000A  c_w.l(libinit2.o)
    0x08000202   0x00000000   Code   RO         2381    .ARM.Collect$$libinit$$0000000C  c_w.l(libinit2.o)
    0x08000202   0x00000000   Code   RO         2383    .ARM.Collect$$libinit$$0000000E  c_w.l(libinit2.o)
    0x08000202   0x00000000   Code   RO         2386    .ARM.Collect$$libinit$$00000011  c_w.l(libinit2.o)
    0x08000202   0x00000000   Code   RO         2388    .ARM.Collect$$libinit$$00000013  c_w.l(libinit2.o)
    0x08000202   0x00000000   Code   RO         2390    .ARM.Collect$$libinit$$00000015  c_w.l(libinit2.o)
    0x08000202   0x00000000   Code   RO         2392    .ARM.Collect$$libinit$$00000017  c_w.l(libinit2.o)
    0x08000202   0x00000000   Code   RO         2394    .ARM.Collect$$libinit$$00000019  c_w.l(libinit2.o)
    0x08000202   0x00000000   Code   RO         2396    .ARM.Collect$$libinit$$0000001B  c_w.l(libinit2.o)
    0x08000202   0x00000000   Code   RO         2398    .ARM.Collect$$libinit$$0000001D  c_w.l(libinit2.o)
    0x08000202   0x00000000   Code   RO         2400    .ARM.Collect$$libinit$$0000001F  c_w.l(libinit2.o)
    0x08000202   0x00000000   Code   RO         2402    .ARM.Collect$$libinit$$00000021  c_w.l(libinit2.o)
    0x08000202   0x00000000   Code   RO         2404    .ARM.Collect$$libinit$$00000023  c_w.l(libinit2.o)
    0x08000202   0x00000000   Code   RO         2406    .ARM.Collect$$libinit$$00000025  c_w.l(libinit2.o)
    0x08000202   0x00000000   Code   RO         2410    .ARM.Collect$$libinit$$0000002C  c_w.l(libinit2.o)
    0x08000202   0x00000000   Code   RO         2412    .ARM.Collect$$libinit$$0000002E  c_w.l(libinit2.o)
    0x08000202   0x00000000   Code   RO         2414    .ARM.Collect$$libinit$$00000030  c_w.l(libinit2.o)
    0x08000202   0x00000000   Code   RO         2416    .ARM.Collect$$libinit$$00000032  c_w.l(libinit2.o)
    0x08000202   0x00000002   Code   RO         2417    .ARM.Collect$$libinit$$00000033  c_w.l(libinit2.o)
    0x08000204   0x00000002   Code   RO         2435    .ARM.Collect$$libshutdown$$00000000  c_w.l(libshutdown.o)
    0x08000206   0x00000000   Code   RO         2446    .ARM.Collect$$libshutdown$$00000003  c_w.l(libshutdown2.o)
    0x08000206   0x00000000   Code   RO         2449    .ARM.Collect$$libshutdown$$00000006  c_w.l(libshutdown2.o)
    0x08000206   0x00000000   Code   RO         2452    .ARM.Collect$$libshutdown$$00000009  c_w.l(libshutdown2.o)
    0x08000206   0x00000000   Code   RO         2454    .ARM.Collect$$libshutdown$$0000000B  c_w.l(libshutdown2.o)
    0x08000206   0x00000000   Code   RO         2457    .ARM.Collect$$libshutdown$$0000000E  c_w.l(libshutdown2.o)
    0x08000206   0x00000002   Code   RO         2458    .ARM.Collect$$libshutdown$$0000000F  c_w.l(libshutdown2.o)
    0x08000208   0x00000000   Code   RO         2338    .ARM.Collect$$rtentry$$00000000  c_w.l(__rtentry.o)
    0x08000208   0x00000000   Code   RO         2344    .ARM.Collect$$rtentry$$00000002  c_w.l(__rtentry2.o)
    0x08000208   0x00000006   Code   RO         2356    .ARM.Collect$$rtentry$$00000004  c_w.l(__rtentry4.o)
    0x0800020e   0x00000000   Code   RO         2346    .ARM.Collect$$rtentry$$00000009  c_w.l(__rtentry2.o)
    0x0800020e   0x00000004   Code   RO         2347    .ARM.Collect$$rtentry$$0000000A  c_w.l(__rtentry2.o)
    0x08000212   0x00000000   Code   RO         2349    .ARM.Collect$$rtentry$$0000000C  c_w.l(__rtentry2.o)
    0x08000212   0x00000008   Code   RO         2350    .ARM.Collect$$rtentry$$0000000D  c_w.l(__rtentry2.o)
    0x0800021a   0x00000002   Code   RO         2371    .ARM.Collect$$rtexit$$00000000  c_w.l(rtexit.o)
    0x0800021c   0x00000000   Code   RO         2419    .ARM.Collect$$rtexit$$00000002  c_w.l(rtexit2.o)
    0x0800021c   0x00000004   Code   RO         2420    .ARM.Collect$$rtexit$$00000003  c_w.l(rtexit2.o)
    0x08000220   0x00000006   Code   RO         2421    .ARM.Collect$$rtexit$$00000004  c_w.l(rtexit2.o)
    0x08000226   0x00000002   PAD
    0x08000228   0x000000be   Code   RO         2245    .emb_text           port.o
    0x080002e6   0x00000002   PAD
    0x080002e8   0x00000040   Code   RO          639    .text               startup_stm32f40_41xxx.o
    0x08000328   0x00000002   Code   RO         2324    .text               c_w.l(use_no_semi_2.o)
    0x0800032a   0x0000008a   Code   RO         2326    .text               c_w.l(rt_memcpy_v6.o)
    0x080003b4   0x00000010   Code   RO         2328    .text               c_w.l(aeabi_memset.o)
    0x080003c4   0x00000044   Code   RO         2330    .text               c_w.l(rt_memclr.o)
    0x08000408   0x00000006   Code   RO         2332    .text               c_w.l(heapauxi.o)
    0x0800040e   0x00000002   Code   RO         2336    .text               c_w.l(use_no_semi.o)
    0x08000410   0x00000064   Code   RO         2339    .text               c_w.l(rt_memcpy_w.o)
    0x08000474   0x0000004e   Code   RO         2341    .text               c_w.l(rt_memclr_w.o)
    0x080004c2   0x0000004a   Code   RO         2358    .text               c_w.l(sys_stackheap_outer.o)
    0x0800050c   0x0000000c   Code   RO         2360    .text               c_w.l(exit.o)
    0x08000518   0x00000008   Code   RO         2368    .text               c_w.l(libspace.o)
    0x08000520   0x00000004   Code   RO          204    i.BusFault_Handler  stm32f4xx_it.o
    0x08000524   0x00000002   Code   RO          205    i.DebugMon_Handler  stm32f4xx_it.o
    0x08000526   0x00000090   Code   RO          690    i.GPIO_Init         stm32f4xx_gpio.o
    0x080005b6   0x00000004   Code   RO          697    i.GPIO_ResetBits    stm32f4xx_gpio.o
    0x080005ba   0x00000004   Code   RO          698    i.GPIO_SetBits      stm32f4xx_gpio.o
    0x080005be   0x00000004   Code   RO          206    i.HardFault_Handler  stm32f4xx_it.o
    0x080005c2   0x00000002   PAD
    0x080005c4   0x0000004c   Code   RO          452    i.IIC_Init          myiic.o
    0x08000610   0x00000068   Code   RO          455    i.IIC_Send_Byte     myiic.o
    0x08000678   0x0000004c   Code   RO          456    i.IIC_Start         myiic.o
    0x080006c4   0x0000004c   Code   RO          457    i.IIC_Stop          myiic.o
    0x08000710   0x00000060   Code   RO          458    i.IIC_Wait_Ack      myiic.o
    0x08000770   0x00000058   Code   RO          320    i.LED_Init          led.o
    0x080007c8   0x00000004   Code   RO          207    i.MemManage_Handler  stm32f4xx_it.o
    0x080007cc   0x00000002   Code   RO          208    i.NMI_Handler       stm32f4xx_it.o
    0x080007ce   0x00000002   PAD
    0x080007d0   0x00000018   Code   RO          340    i.OLED_Clear        oled.o
    0x080007e8   0x0000001c   Code   RO          342    i.OLED_Display_On   oled.o
    0x08000804   0x00000060   Code   RO          343    i.OLED_DrawPoint    oled.o
    0x08000864   0x00000144   Code   RO          345    i.OLED_Init         oled.o
    0x080009a8   0x00000048   Code   RO          346    i.OLED_Refresh_Gram  oled.o
    0x080009f0   0x0000010c   Code   RO          347    i.OLED_ShowChar     oled.o
    0x08000afc   0x00000062   Code   RO          349    i.OLED_ShowString   oled.o
    0x08000b5e   0x00000018   Code   RO          350    i.OLED_WR_Byte      oled.o
    0x08000b76   0x00000002   PAD
    0x08000b78   0x00000020   Code   RO          787    i.RCC_AHB1PeriphClockCmd  stm32f4xx_rcc.o
    0x08000b98   0x000000ec   Code   RO          283    i.SetSysClock       system_stm32f4xx.o
    0x08000c84   0x00000028   Code   RO          649    i.SysTick_CLKSourceConfig  misc.o
    0x08000cac   0x00000010   Code   RO          513    i.SysTick_Handler   delay.o
    0x08000cbc   0x00000068   Code   RO          285    i.SystemInit        system_stm32f4xx.o
    0x08000d24   0x00000088   Code   RO          580    i.USART1_IRQHandler  usart.o
    0x08000dac   0x00000054   Code   RO         1185    i.USART_GetITStatus  stm32f4xx_usart.o
    0x08000e00   0x0000000a   Code   RO         1195    i.USART_ReceiveData  stm32f4xx_usart.o
    0x08000e0a   0x00000004   Code   RO          209    i.UsageFault_Handler  stm32f4xx_it.o
    0x08000e0e   0x0000002c   Code   RO          351    i.Write_IIC_Command  oled.o
    0x08000e3a   0x0000002c   Code   RO          352    i.Write_IIC_Data    oled.o
    0x08000e66   0x00000004   Code   RO          581    i._sys_exit         usart.o
    0x08000e6a   0x00000002   PAD
    0x08000e6c   0x00000044   Code   RO          514    i.delay_init        delay.o
    0x08000eb0   0x00000040   Code   RO          515    i.delay_ms          delay.o
    0x08000ef0   0x00000048   Code   RO          516    i.delay_us          delay.o
    0x08000f38   0x00000020   Code   RO            3    i.led0_task         main.o
    0x08000f58   0x0000002c   Code   RO            4    i.led1_task         main.o
    0x08000f84   0x00000064   Code   RO            5    i.main              main.o
    0x08000fe8   0x00000098   Code   RO         1732    i.prvAddCurrentTaskToDelayedList  tasks.o
    0x08001080   0x000000b8   Code   RO         1733    i.prvAddNewTaskToReadyList  tasks.o
    0x08001138   0x00000064   Code   RO         2048    i.prvCheckForValidListAndQueue  timers.o
    0x0800119c   0x00000048   Code   RO         1734    i.prvCheckTasksWaitingTermination  tasks.o
    0x080011e4   0x0000002a   Code   RO         1517    i.prvCopyDataFromQueue  queue.o
    0x0800120e   0x0000007e   Code   RO         1518    i.prvCopyDataToQueue  queue.o
    0x0800128c   0x00000012   Code   RO         1735    i.prvDeleteTCB      tasks.o
    0x0800129e   0x00000002   PAD
    0x080012a0   0x00000028   Code   RO         2049    i.prvGetNextExpireTime  timers.o
    0x080012c8   0x0000007c   Code   RO         2196    i.prvHeapInit       heap_4.o
    0x08001344   0x00000028   Code   RO         1736    i.prvIdleTask       tasks.o
    0x0800136c   0x0000002a   Code   RO         1521    i.prvInitialiseNewQueue  queue.o
    0x08001396   0x000000c4   Code   RO         1737    i.prvInitialiseNewTask  tasks.o
    0x0800145a   0x00000002   PAD
    0x0800145c   0x00000068   Code   RO         1738    i.prvInitialiseTaskLists  tasks.o
    0x080014c4   0x00000068   Code   RO         2197    i.prvInsertBlockIntoFreeList  heap_4.o
    0x0800152c   0x00000058   Code   RO         2051    i.prvInsertTimerInActiveList  timers.o
    0x08001584   0x0000001a   Code   RO         1522    i.prvIsQueueEmpty   queue.o
    0x0800159e   0x0000001e   Code   RO         1523    i.prvIsQueueFull    queue.o
    0x080015bc   0x00000064   Code   RO         2052    i.prvProcessExpiredTimer  timers.o
    0x08001620   0x000000f4   Code   RO         2053    i.prvProcessReceivedCommands  timers.o
    0x08001714   0x00000074   Code   RO         2054    i.prvProcessTimerOrBlockTask  timers.o
    0x08001788   0x00000034   Code   RO         1740    i.prvResetNextTaskUnblockTime  tasks.o
    0x080017bc   0x0000002c   Code   RO         2055    i.prvSampleTimeNow  timers.o
    0x080017e8   0x000000a0   Code   RO         2056    i.prvSwitchTimerLists  timers.o
    0x08001888   0x00000040   Code   RO         2246    i.prvTaskExitError  port.o
    0x080018c8   0x0000001a   Code   RO         2057    i.prvTimerTask      timers.o
    0x080018e2   0x0000007e   Code   RO         1524    i.prvUnlockQueue    queue.o
    0x08001960   0x0000013c   Code   RO         2198    i.pvPortMalloc      heap_4.o
    0x08001a9c   0x0000002c   Code   RO         2247    i.pxPortInitialiseStack  port.o
    0x08001ac8   0x0000006c   Code   RO            6    i.start_task        main.o
    0x08001b34   0x00000028   Code   RO         1477    i.uxListRemove      list.o
    0x08001b5c   0x0000001a   Code   RO         1478    i.vListInitialise   list.o
    0x08001b76   0x00000006   Code   RO         1479    i.vListInitialiseItem  list.o
    0x08001b7c   0x00000034   Code   RO         1480    i.vListInsert       list.o
    0x08001bb0   0x00000018   Code   RO         1481    i.vListInsertEnd    list.o
    0x08001bc8   0x00000054   Code   RO         2249    i.vPortEnterCritical  port.o
    0x08001c1c   0x0000003c   Code   RO         2250    i.vPortExitCritical  port.o
    0x08001c58   0x00000094   Code   RO         2199    i.vPortFree         heap_4.o
    0x08001cec   0x00000028   Code   RO         2251    i.vPortSetupTimerInterrupt  port.o
    0x08001d14   0x00000078   Code   RO         2252    i.vPortValidateInterruptPriority  port.o
    0x08001d8c   0x0000002c   Code   RO         1530    i.vQueueAddToRegistry  queue.o
    0x08001db8   0x0000004a   Code   RO         1534    i.vQueueWaitForMessageRestricted  queue.o
    0x08001e02   0x00000002   PAD
    0x08001e04   0x0000005c   Code   RO         1750    i.vTaskDelay        tasks.o
    0x08001e60   0x000000f4   Code   RO         1752    i.vTaskDelete       tasks.o
    0x08001f54   0x00000018   Code   RO         1755    i.vTaskInternalSetTimeOutState  tasks.o
    0x08001f6c   0x0000000c   Code   RO         1756    i.vTaskMissedYield  tasks.o
    0x08001f78   0x00000038   Code   RO         1757    i.vTaskPlaceOnEventList  tasks.o
    0x08001fb0   0x00000040   Code   RO         1758    i.vTaskPlaceOnEventListRestricted  tasks.o
    0x08001ff0   0x00000094   Code   RO         1766    i.vTaskStartScheduler  tasks.o
    0x08002084   0x00000010   Code   RO         1768    i.vTaskSuspendAll   tasks.o
    0x08002094   0x0000008c   Code   RO         1769    i.vTaskSwitchContext  tasks.o
    0x08002120   0x00000168   Code   RO         2253    i.xPortStartScheduler  port.o
    0x08002288   0x00000034   Code   RO         2254    i.xPortSysTickHandler  port.o
    0x080022bc   0x0000005a   Code   RO         1537    i.xQueueGenericCreate  queue.o
    0x08002316   0x00000002   PAD
    0x08002318   0x00000098   Code   RO         1538    i.xQueueGenericReset  queue.o
    0x080023b0   0x000001a8   Code   RO         1539    i.xQueueGenericSend  queue.o
    0x08002558   0x000000f8   Code   RO         1540    i.xQueueGenericSendFromISR  queue.o
    0x08002650   0x00000168   Code   RO         1547    i.xQueueReceive     queue.o
    0x080027b8   0x0000008c   Code   RO         1770    i.xTaskCheckForTimeOut  tasks.o
    0x08002844   0x00000060   Code   RO         1771    i.xTaskCreate       tasks.o
    0x080028a4   0x00000020   Code   RO         1773    i.xTaskGetSchedulerState  tasks.o
    0x080028c4   0x0000000c   Code   RO         1774    i.xTaskGetTickCount  tasks.o
    0x080028d0   0x00000148   Code   RO         1776    i.xTaskIncrementTick  tasks.o
    0x08002a18   0x000000c8   Code   RO         1777    i.xTaskPriorityDisinherit  tasks.o
    0x08002ae0   0x00000098   Code   RO         1779    i.xTaskRemoveFromEventList  tasks.o
    0x08002b78   0x00000104   Code   RO         1780    i.xTaskResumeAll    tasks.o
    0x08002c7c   0x00000058   Code   RO         2063    i.xTimerCreateTimerTask  timers.o
    0x08002cd4   0x00000084   Code   RO         2064    i.xTimerGenericCommand  timers.o
    0x08002d58   0x0000000a   Code   RO         2427    x$fpl$fpinit        fz_wm.l(fpinit.o)
    0x08002d62   0x000017c0   Data   RO          355    .constdata          oled.o
    0x08004522   0x00000002   PAD
    0x08004524   0x00000020   Data   RO         2490    Region$$Table       anon$$obj.o


    Execution Region RW_IRAM1 (Base: 0x20000000, Size: 0x00013900, Max: 0x00020000, ABSOLUTE)

    Base Addr    Size         Type   Attr      Idx    E Section Name        Object

    0x20000000   0x0000000c   Data   RW            7    .data               main.o
    0x2000000c   0x00000014   Data   RW          286    .data               system_stm32f4xx.o
    0x20000020   0x00000008   Data   RW          517    .data               delay.o
    0x20000028   0x00000006   Data   RW          585    .data               usart.o
    0x2000002e   0x00000002   PAD
    0x20000030   0x0000003c   Data   RW         1783    .data               tasks.o
    0x2000006c   0x00000014   Data   RW         2070    .data               timers.o
    0x20000080   0x00000018   Data   RW         2204    .data               heap_4.o
    0x20000098   0x0000000c   Data   RW         2255    .data               port.o
    0x200000a4   0x00000400   Zero   RW          354    .bss                oled.o
    0x200004a4   0x000000c8   Zero   RW          584    .bss                usart.o
    0x2000056c   0x00000040   Zero   RW         1551    .bss                queue.o
    0x200005ac   0x000000c8   Zero   RW         1782    .bss                tasks.o
    0x20000674   0x00000028   Zero   RW         2069    .bss                timers.o
    0x2000069c   0x00012c00   Zero   RW         2203    .bss                heap_4.o
    0x2001329c   0x00000060   Zero   RW         2369    .bss                c_w.l(libspace.o)
    0x200132fc   0x00000004   PAD
    0x20013300   0x00000200   Zero   RW          637    HEAP                startup_stm32f40_41xxx.o
    0x20013500   0x00000400   Zero   RW          636    STACK               startup_stm32f40_41xxx.o


==============================================================================

Image component sizes


      Code (inc. data)   RO Data    RW Data    ZI Data      Debug   Object Name

       220         18          0          8          0       2629   delay.o
         0          0          0          0          0       8040   event_groups.o
       692         62          0         24      76800       4535   heap_4.o
        88          8          0          0          0        575   led.o
       148          0          0          0          0       3362   list.o
       284        106          0         12          0     257714   main.o
        40          0          0          0          0        566   misc.o
       428         68          0          0          0       2961   myiic.o
      1022         38       6080          0       1024       9420   oled.o
      1014         92          0         12          0      11825   port.o
      1784         20          0          0         64      15842   queue.o
        64         26        392          0       1536        872   startup_stm32f40_41xxx.o
       152          0          0          0          0       2280   stm32f4xx_gpio.o
        20          0          0          0          0       2889   stm32f4xx_it.o
        32          6          0          0          0        617   stm32f4xx_rcc.o
        94          0          0          0          0       2048   stm32f4xx_usart.o
       340         32          0         20          0       1861   system_stm32f4xx.o
      2834        390          0         60        200      25220   tasks.o
      1138        116          0         20         40      22347   timers.o
       140         14          0          6        200       3100   usart.o

    ----------------------------------------------------------------------
     10552        996       6506        164      79864     378703   Object Totals
         0          0         32          0          0          0   (incl. Generated)
        18          0          2          2          0          0   (incl. Padding)

    ----------------------------------------------------------------------

      Code (inc. data)   RO Data    RW Data    ZI Data      Debug   Library Member Name

         8          0          0          0          0         68   __main.o
         0          0          0          0          0          0   __rtentry.o
        12          0          0          0          0          0   __rtentry2.o
         6          0          0          0          0          0   __rtentry4.o
        52          8          0          0          0          0   __scatter.o
        26          0          0          0          0          0   __scatter_copy.o
        28          0          0          0          0          0   __scatter_zi.o
        16          0          0          0          0         68   aeabi_memset.o
        12          0          0          0          0         72   exit.o
         6          0          0          0          0        152   heapauxi.o
         2          0          0          0          0          0   libinit.o
         6          0          0          0          0          0   libinit2.o
         2          0          0          0          0          0   libshutdown.o
         2          0          0          0          0          0   libshutdown2.o
         8          4          0          0         96         68   libspace.o
        68          0          0          0          0         68   rt_memclr.o
        78          0          0          0          0         80   rt_memclr_w.o
       138          0          0          0          0         68   rt_memcpy_v6.o
       100          0          0          0          0         80   rt_memcpy_w.o
         2          0          0          0          0          0   rtexit.o
        10          0          0          0          0          0   rtexit2.o
        74          0          0          0          0         80   sys_stackheap_outer.o
         2          0          0          0          0         68   use_no_semi.o
         2          0          0          0          0         68   use_no_semi_2.o
        10          0          0          0          0        116   fpinit.o

    ----------------------------------------------------------------------
       674         12          0          0        100       1056   Library Totals
         4          0          0          0          4          0   (incl. Padding)

    ----------------------------------------------------------------------

      Code (inc. data)   RO Data    RW Data    ZI Data      Debug   Library Name

       660         12          0          0         96        940   c_w.l
        10          0          0          0          0        116   fz_wm.l

    ----------------------------------------------------------------------
       674         12          0          0        100       1056   Library Totals

    ----------------------------------------------------------------------

==============================================================================


      Code (inc. data)   RO Data    RW Data    ZI Data      Debug   

     11226       1008       6506        164      79964     369143   Grand Totals
     11226       1008       6506        164      79964     369143   ELF Image Totals
     11226       1008       6506        164          0          0   ROM Totals

==============================================================================

    Total RO  Size (Code + RO Data)                17732 (  17.32kB)
    Total RW  Size (RW Data + ZI Data)             80128 (  78.25kB)
    Total ROM Size (Code + RO Data + RW Data)      17896 (  17.48kB)

==============================================================================

